{
  "_format": "hh-sol-artifact-1",
  "contractName": "LilVillainsStaking",
  "sourceName": "contracts/LilVillainsStaking.sol",
  "abi": [
    {
      "inputs": [
        {
          "internalType": "address",
          "name": "collectionAddress",
          "type": "address"
        },
        {
          "internalType": "uint256",
          "name": "tokenId",
          "type": "uint256"
        }
      ],
      "name": "bypassTokenId",
      "outputs": [],
      "stateMutability": "view",
      "type": "function"
    },
    {
      "inputs": [
        {
          "internalType": "address",
          "name": "collectionAddress",
          "type": "address"
        },
        {
          "internalType": "address",
          "name": "from",
          "type": "address"
        },
        {
          "internalType": "uint256",
          "name": "tokenId",
          "type": "uint256"
        }
      ],
      "name": "canTokenBeTransferred",
      "outputs": [
        {
          "internalType": "bool",
          "name": "",
          "type": "bool"
        }
      ],
      "stateMutability": "view",
      "type": "function"
    },
    {
      "inputs": [
        {
          "internalType": "address",
          "name": "from",
          "type": "address"
        },
        {
          "internalType": "uint256",
          "name": "tokenId",
          "type": "uint256"
        }
      ],
      "name": "getDynamicAttributes",
      "outputs": [
        {
          "components": [
            {
              "internalType": "string",
              "name": "displayType",
              "type": "string"
            },
            {
              "internalType": "string",
              "name": "traitType",
              "type": "string"
            },
            {
              "internalType": "string",
              "name": "value",
              "type": "string"
            }
          ],
          "internalType": "struct Attribute[]",
          "name": "attributes",
          "type": "tuple[]"
        }
      ],
      "stateMutability": "view",
      "type": "function"
    },
    {
      "inputs": [
        {
          "internalType": "address",
          "name": "collectionAddress",
          "type": "address"
        },
        {
          "internalType": "uint256",
          "name": "tokenId",
          "type": "uint256"
        }
      ],
      "name": "removeBypassTokenId",
      "outputs": [],
      "stateMutability": "view",
      "type": "function"
    },
    {
      "inputs": [
        {
          "internalType": "bytes4",
          "name": "interfaceId",
          "type": "bytes4"
        }
      ],
      "name": "supportsInterface",
      "outputs": [
        {
          "internalType": "bool",
          "name": "",
          "type": "bool"
        }
      ],
      "stateMutability": "view",
      "type": "function"
    }
  ],
  "bytecode": "0x608060405234801561001057600080fd5b5061030f806100206000396000f3fe608060405234801561001057600080fd5b50600436106100575760003560e01c806301ffc9a71461005c578063148740bd1461008457806354e4116c1461009b57806387103861146100af578063cdd84bc21461009b575b600080fd5b61006f61006a366004610138565b6100d2565b60405190151581526020015b60405180910390f35b61006f610092366004610185565b60009392505050565b6100ad6100a93660046101c1565b5050565b005b6100c56100bd3660046101c1565b606092915050565b60405161007b9190610238565b60006100dd826100e3565b92915050565b60006001600160e01b03198216638710386160e01b14806100dd57506100dd8260006001600160e01b03198216638dbb1a1360e01b14806100dd57506301ffc9a760e01b6001600160e01b03198316146100dd565b60006020828403121561014a57600080fd5b81356001600160e01b03198116811461016257600080fd5b9392505050565b80356001600160a01b038116811461018057600080fd5b919050565b60008060006060848603121561019a57600080fd5b6101a384610169565b92506101b160208501610169565b9150604084013590509250925092565b600080604083850312156101d457600080fd5b6101dd83610169565b946020939093013593505050565b6000815180845260005b81811015610211576020818501810151868301820152016101f5565b81811115610223576000602083870101525b50601f01601f19169290920160200192915050565b60006020808301818452808551808352604092508286019150828160051b87010184880160005b838110156102cb57603f19898403018552815160608151818652610285828701826101eb565b915050888201518582038a87015261029d82826101eb565b915050878201519150848103888601526102b781836101eb565b96890196945050509086019060010161025f565b50909897505050505050505056fea26469706673582212208393479c554dfcc6828ac28b0016c365fdcbf0ff981b9fde5bbab83cec94d44264736f6c63430008090033",
  "linkReferences": {},
  "deployedLinkReferences": {}
}