{
  "_format": "hh-sol-artifact-1",
  "contractName": "LilVillainsMinter",
  "sourceName": "contracts/LilVillainsMinter.sol",
  "abi": [
    {
      "inputs": [
        {
          "internalType": "uint64",
          "name": "chainLinkSubsId_",
          "type": "uint64"
        },
        {
          "internalType": "address",
          "name": "vrfCoordinator",
          "type": "address"
        },
        {
          "internalType": "bytes32",
          "name": "chainLinkKeyHash_",
          "type": "bytes32"
        }
      ],
      "stateMutability": "nonpayable",
      "type": "constructor"
    },
    {
      "inputs": [
        {
          "internalType": "address",
          "name": "have",
          "type": "address"
        },
        {
          "internalType": "address",
          "name": "want",
          "type": "address"
        }
      ],
      "name": "OnlyCoordinatorCanFulfill",
      "type": "error"
    },
    {
      "inputs": [],
      "name": "SeedNumberShouldntBeSet",
      "type": "error"
    },
    {
      "anonymous": false,
      "inputs": [
        {
          "indexed": false,
          "internalType": "address",
          "name": "owner",
          "type": "address"
        },
        {
          "indexed": false,
          "internalType": "uint256[]",
          "name": "tokenIds",
          "type": "uint256[]"
        },
        {
          "indexed": false,
          "internalType": "string",
          "name": "stage",
          "type": "string"
        }
      ],
      "name": "BatchMintExecuted",
      "type": "event"
    },
    {
      "anonymous": false,
      "inputs": [
        {
          "indexed": true,
          "internalType": "address",
          "name": "previousOwner",
          "type": "address"
        },
        {
          "indexed": true,
          "internalType": "address",
          "name": "newOwner",
          "type": "address"
        }
      ],
      "name": "OwnershipTransferred",
      "type": "event"
    },
    {
      "anonymous": false,
      "inputs": [
        {
          "indexed": false,
          "internalType": "address",
          "name": "account",
          "type": "address"
        }
      ],
      "name": "Paused",
      "type": "event"
    },
    {
      "anonymous": false,
      "inputs": [],
      "name": "SeedNumberAssigned",
      "type": "event"
    },
    {
      "anonymous": false,
      "inputs": [
        {
          "indexed": false,
          "internalType": "address",
          "name": "account",
          "type": "address"
        }
      ],
      "name": "Unpaused",
      "type": "event"
    },
    {
      "inputs": [
        {
          "internalType": "uint32",
          "name": "selectedAmountToMint",
          "type": "uint32"
        },
        {
          "internalType": "uint32",
          "name": "signedAmount",
          "type": "uint32"
        },
        {
          "internalType": "bytes32[]",
          "name": "proofs",
          "type": "bytes32[]"
        },
        {
          "internalType": "bytes",
          "name": "signature",
          "type": "bytes"
        }
      ],
      "name": "mint",
      "outputs": [],
      "stateMutability": "payable",
      "type": "function"
    },
    {
      "inputs": [],
      "name": "owner",
      "outputs": [
        {
          "internalType": "address",
          "name": "",
          "type": "address"
        }
      ],
      "stateMutability": "view",
      "type": "function"
    },
    {
      "inputs": [],
      "name": "pause",
      "outputs": [],
      "stateMutability": "nonpayable",
      "type": "function"
    },
    {
      "inputs": [],
      "name": "paused",
      "outputs": [
        {
          "internalType": "bool",
          "name": "",
          "type": "bool"
        }
      ],
      "stateMutability": "view",
      "type": "function"
    },
    {
      "inputs": [
        {
          "internalType": "uint256",
          "name": "requestId",
          "type": "uint256"
        },
        {
          "internalType": "uint256[]",
          "name": "randomWords",
          "type": "uint256[]"
        }
      ],
      "name": "rawFulfillRandomWords",
      "outputs": [],
      "stateMutability": "nonpayable",
      "type": "function"
    },
    {
      "inputs": [],
      "name": "renounceOwnership",
      "outputs": [],
      "stateMutability": "nonpayable",
      "type": "function"
    },
    {
      "inputs": [],
      "name": "requestRandomWords",
      "outputs": [],
      "stateMutability": "nonpayable",
      "type": "function"
    },
    {
      "inputs": [
        {
          "components": [
            {
              "components": [
                {
                  "internalType": "uint256",
                  "name": "id",
                  "type": "uint256"
                },
                {
                  "internalType": "string[]",
                  "name": "values",
                  "type": "string[]"
                }
              ],
              "internalType": "struct NFTBaseAttributes[]",
              "name": "nFTsBaseAttributes",
              "type": "tuple[]"
            }
          ],
          "internalType": "struct NFTBaseAttributesRequest",
          "name": "nFTBaseAttributesRequest",
          "type": "tuple"
        },
        {
          "internalType": "bytes",
          "name": "signature",
          "type": "bytes"
        }
      ],
      "name": "setBaseAttributesOfNfts",
      "outputs": [],
      "stateMutability": "nonpayable",
      "type": "function"
    },
    {
      "inputs": [
        {
          "components": [
            {
              "components": [
                {
                  "internalType": "uint256",
                  "name": "id",
                  "type": "uint256"
                },
                {
                  "internalType": "string[]",
                  "name": "values",
                  "type": "string[]"
                }
              ],
              "internalType": "struct NFTBaseAttributes[]",
              "name": "nFTsBaseAttributes",
              "type": "tuple[]"
            }
          ],
          "internalType": "struct NFTBaseAttributesRequest",
          "name": "nFTBaseAttributesRequest",
          "type": "tuple"
        }
      ],
      "name": "setBaseAttributesOfNftsByOwner",
      "outputs": [],
      "stateMutability": "nonpayable",
      "type": "function"
    },
    {
      "inputs": [
        {
          "internalType": "address",
          "name": "lilVillainsAddress",
          "type": "address"
        }
      ],
      "name": "setLilCollection",
      "outputs": [],
      "stateMutability": "nonpayable",
      "type": "function"
    },
    {
      "inputs": [
        {
          "internalType": "string",
          "name": "name",
          "type": "string"
        },
        {
          "internalType": "uint256",
          "name": "price",
          "type": "uint256"
        },
        {
          "internalType": "uint32",
          "name": "maxAmount",
          "type": "uint32"
        },
        {
          "internalType": "bytes32",
          "name": "merkleRoot",
          "type": "bytes32"
        }
      ],
      "name": "setStage",
      "outputs": [],
      "stateMutability": "nonpayable",
      "type": "function"
    },
    {
      "inputs": [
        {
          "internalType": "address",
          "name": "newOwner",
          "type": "address"
        }
      ],
      "name": "transferOwnership",
      "outputs": [],
      "stateMutability": "nonpayable",
      "type": "function"
    },
    {
      "inputs": [],
      "name": "unpause",
      "outputs": [],
      "stateMutability": "nonpayable",
      "type": "function"
    }
  ],
  "bytecode": "0x610160604052600a805463ffffffff191690553480156200001f57600080fd5b506040516200297b3803806200297b833981016040819052620000429162000203565b604080518082018252601081526f13919510db185a5b5959105b5bdd5b9d60821b6020808301918252835180850190945260018452603160f81b9084019081526001600160a01b038616608052825190912083519091206101008290526101208190524660c05291929186918691869186918691907f8b73c3c69bb8fe3d512ecc4cf759cc79239f7b179b0ffacaa9a75d522b39400f620001288184846040805160208101859052908101839052606081018290524660808201523060a082015260009060c0016040516020818303038152906040528051906020012090509392505050565b60a0523060e05261014052506200014b9250620001459150503390565b620001b3565b600355600480546001600160401b039093166001600160401b031990931692909217909155600280546001600160a01b039092166001600160a01b031992831681179091556001805490921617905550506006805460ff60a01b191690555062000261915050565b600080546001600160a01b038381166001600160a01b0319831681178455604051919092169283917f8be0079c531659141344cd1fd0a4f28419497f9722a3daafe3b4186f6b6457e09190a35050565b6000806000606084860312156200021957600080fd5b83516001600160401b03811681146200023157600080fd5b60208501519093506001600160a01b03811681146200024f57600080fd5b80925050604084015190509250925092565b60805160a05160c05160e0516101005161012051610140516126b8620002c360003960006115e00152600061162f0152600061160a015260006115630152600061158d015260006115b7015260008181610252015261029401526126b86000f3fe6080604052600436106100c25760003560e01c80638da5cb5b1161007f578063c298820e11610059578063c298820e146101d2578063e0c86289146101f2578063eb97286a14610207578063f2fde38b1461022757600080fd5b80638da5cb5b146101775780639a298b571461019f578063aa0f88fd146101bf57600080fd5b80631fe543e3146100c75780633f4ba83a146100e95780635c975abb146100fe5780636a495d091461012d578063715018a61461014d5780638456cb5914610162575b600080fd5b3480156100d357600080fd5b506100e76100e2366004611dc4565b610247565b005b3480156100f557600080fd5b506100e76102d4565b34801561010a57600080fd5b50600654600160a01b900460ff1660405190151581526020015b60405180910390f35b34801561013957600080fd5b506100e7610148366004611ee6565b6102e6565b34801561015957600080fd5b506100e76103fb565b34801561016e57600080fd5b506100e761040d565b34801561018357600080fd5b506000546040516001600160a01b039091168152602001610124565b3480156101ab57600080fd5b506100e76101ba366004611f4e565b61041d565b6100e76101cd366004611f90565b610511565b3480156101de57600080fd5b506100e76101ed366004612051565b6107b7565b3480156101fe57600080fd5b506100e7610b02565b34801561021357600080fd5b506100e76102223660046120b5565b610bdc565b34801561023357600080fd5b506100e7610242366004611f4e565b610c51565b336001600160a01b037f000000000000000000000000000000000000000000000000000000000000000016146102c65760405163073e64fd60e21b81523360048201526001600160a01b037f00000000000000000000000000000000000000000000000000000000000000001660248201526044015b60405180910390fd5b6102d08282610cc7565b5050565b6102dc610d15565b6102e4610d6f565b565b6000546001600160a01b031661034261030661030186610dc4565b610f9a565b84848080601f016020809104026020016040519081016040528093929190818152602001838380828437600092019190915250610fee92505050565b6001600160a01b03161461038c5760405162461bcd60e51b8152602060048201526011602482015270496e76616c6964207369676e617475726560781b60448201526064016102bd565b6006546001600160a01b031663a2ee4b266103a785806120f1565b6040518363ffffffff1660e01b81526004016103c4929190612163565b600060405180830381600087803b1580156103de57600080fd5b505af11580156103f2573d6000803e3d6000fd5b50505050505050565b610403610d15565b6102e46000611012565b610415610d15565b6102e4611062565b610425610d15565b6040516301ffc9a760e01b815263e46a9ccf60e01b60048201526001600160a01b038216906301ffc9a79060240160206040518083038186803b15801561046b57600080fd5b505afa15801561047f573d6000803e3d6000fd5b505050506040513d601f19601f820116820180604052508101906104a391906122ad565b6104ef5760405162461bcd60e51b815260206004820152601f60248201527f41646472657373206e6f7420737570706f727473206261746368206d696e740060448201526064016102bd565b600680546001600160a01b0319166001600160a01b0392909216919091179055565b6105196110a5565b6105ac60078054610529906122cf565b80601f0160208091040260200160405190810160405280929190818152602001828054610555906122cf565b80156105a25780601f10610577576101008083540402835291602001916105a2565b820191906000526020600020905b81548152906001019060200180831161058557829003601f168201915b5050505050511590565b156105e95760405162461bcd60e51b815260206004820152600d60248201526c14dd1859d9481b9bdd081cd95d609a1b60448201526064016102bd565b600a54611e61906106009063ffffffff168861231a565b63ffffffff16111561065e5760405162461bcd60e51b815260206004820152602160248201527f52657175657374206d696e74656420616d6f756e7420756e617661696c61626c6044820152606560f81b60648201526084016102bd565b60006106686110f7565b9050348763ffffffff1682600101546106819190612342565b146106c75760405162461bcd60e51b8152602060048201526016602482015275125b9d985b1a59081c185e5b595b9d08185b5bdd5b9d60521b60448201526064016102bd565b6106f78787878787878760050160009054906101000a90048015611d0d02176001600160401b031663ffffffff16565b610701818861111d565b600061070c8861116f565b600654604051634684d7e960e01b81529192506001600160a01b031690634684d7e99061073f903390859060040161239c565b600060405180830381600087803b15801561075957600080fd5b505af115801561076d573d6000803e3d6000fd5b50506040517f5f2a1afb5b901e3bf9257669e105d076a0addc4134cd1f78159bcd45e80237ac92506107a591503390849086906123c0565b60405180910390a15050505050505050565b6107bf610d15565b6006546001600160a01b03166108175760405162461bcd60e51b815260206004820152601e60248201527f4d696e74696e6720636f6c6c656374696f6e20776173206e6f7420736574000060448201526064016102bd565b6000600554116108625760405162461bcd60e51b815260206004820152601660248201527514d95959139d5b58995c881dd85cc81b9bdd081cd95d60521b60448201526064016102bd565b6108a185858080601f0160208091040260200160405190810160405280939291908181526020018383808284376000920191909152506110f292505050565b156108e35760405162461bcd60e51b8152602060048201526012602482015271496e76616c6964205374616765206e616d6560701b60448201526064016102bd565b610912600986866040516108f8929190612467565b9081526040519081900360200190208054610529906122cf565b6109575760405162461bcd60e51b81526020600482015260166024820152755370656369666965642053746167652065786973747360501b60448201526064016102bd565b60006009868660405161096b929190612467565b9081526040519081900360200190209050610987818787611d15565b506001810184905560028101805463ffffffff191663ffffffff8516179055600381018290556040516000906109c09088908890612467565b60405180910390209050807f9f8188d32307130011a8b0b7b17be55788203208ee0ab4dd1bc6660300697d011415610a0e5760058201805467ffffffffffffffff1916611288179055610aae565b807ffce1f8023251ee9a58cde326b283d0e49836b5014750b2675f70be773cc853511415610a525760058201805467ffffffffffffffff19166113e3179055610aae565b807f912ce7c6fb0f1e9ba8acf914f458a0c8e5ecf8edc45e210b9badcf18fb33a7d91415610a965760058201805467ffffffffffffffff191661143e179055610aae565b60058201805467ffffffffffffffff19166114541790555b60088054600181018255600091909152610aeb907ff3f7a9fe364faab93b216da50a3214154f22a0a2b415b23a84c8169e8b636ee3018888611d15565b50610af860078888611d15565b5050505050505050565b610b0a610d15565b60055415610b2b57604051630303a05d60e41b815260040160405180910390fd5b6001805460038054600480546040516305d3b1d360e41b8152918201929092526001600160401b0390911660248201526044810191909152620186a0606482015260848101929092526001600160a01b031690635d3b1d309060a401602060405180830381600087803b158015610ba157600080fd5b505af1158015610bb5573d6000803e3d6000fd5b505050506040513d601f19601f82011682018060405250810190610bd99190612477565b50565b610be4610d15565b6006546001600160a01b031663a2ee4b26610bff83806120f1565b6040518363ffffffff1660e01b8152600401610c1c929190612163565b600060405180830381600087803b158015610c3657600080fd5b505af1158015610c4a573d6000803e3d6000fd5b5050505050565b610c59610d15565b6001600160a01b038116610cbe5760405162461bcd60e51b815260206004820152602660248201527f4f776e61626c653a206e6577206f776e657220697320746865207a65726f206160448201526564647265737360d01b60648201526084016102bd565b610bd981611012565b80600081518110610cda57610cda612490565b60209081029190910101516005556040517f365a99e4698f031fa444ac20a9ba82f8cffed68c5d1aab22a63c9db2822befae90600090a15050565b6000546001600160a01b031633146102e45760405162461bcd60e51b815260206004820181905260248201527f4f776e61626c653a2063616c6c6572206973206e6f7420746865206f776e657260448201526064016102bd565b610d77611495565b6006805460ff60a01b191690557f5db9ee0a495bf2e6ff9c91a7834c1ba4fdd244a5e8aa4e537bd38aeae4b073aa335b6040516001600160a01b03909116815260200160405180910390a1565b600080610dd183806120f1565b90506001600160401b03811115610dea57610dea611dae565b604051908082528060200260200182016040528015610e13578160200160208202803683370190505b50905060005b610e2384806120f1565b9050811015610e8f57610e60610e3985806120f1565b83818110610e4957610e49612490565b9050602002810190610e5b91906124a6565b6114e5565b828281518110610e7257610e72612490565b602090810291909101015280610e87816124c6565b915050610e19565b50604051602001610f25907f4e4654426173654174747269627574657352657175657374284e46544261736581527f417474726962757465735b5d206e46547342617365417474726962757465732960208201527f4e465442617365417474726962757465732875696e743235362069642c73747260408201526c696e675b5d2076616c7565732960981b6060820152606d0190565b6040516020818303038152906040528051906020012081604051602001610f4c91906124e1565b60405160208183030381529060405280519060200120604051602001610f7c929190918252602082015260400190565b60405160208183030381529060405280519060200120915050919050565b6000610fe8610fa7611556565b8360405161190160f01b6020820152602281018390526042810182905260009060620160405160208183030381529060405280519060200120905092915050565b92915050565b6000806000610ffd858561167d565b9150915061100a816116ed565b509392505050565b600080546001600160a01b038381166001600160a01b0319831681178455604051919092169283917f8be0079c531659141344cd1fd0a4f28419497f9722a3daafe3b4186f6b6457e09190a35050565b61106a6110a5565b6006805460ff60a01b1916600160a01b1790557f62e78cea01bee320cd4e420270b5ea74000d11b0c9f74754ebdbfc544b05a258610da73390565b600654600160a01b900460ff16156102e45760405162461bcd60e51b815260206004820152601060248201526f14185d5cd8589b194e881c185d5cd95960821b60448201526064016102bd565b511590565b60006009600760405161110a9190612517565b9081526020016040518091039020905090565b33600090815260048301602052604090205461114090829063ffffffff1661231a565b3360009081526004939093016020526040909220805463ffffffff191663ffffffff9093169290921790915550565b606060008263ffffffff166001600160401b0381111561119157611191611dae565b6040519080825280602002602001820160405280156111ba578160200160208202803683370190505b50905060005b8363ffffffff168163ffffffff16101561125357600554600a54611e6191906111ef9063ffffffff168461231a565b6111fa906061612585565b63ffffffff1661120a91906125b1565b61121491906125c9565b61121f9060016125b1565b828263ffffffff168151811061123757611237612490565b60200260200101818152505061124c816118a8565b90506111c0565b50600a5461126890849063ffffffff1661231a565b600a805463ffffffff191663ffffffff9290921691909117905592915050565b60006112926110f7565b90506112a66000546001600160a01b031690565b6001600160a01b03166112f76112bb886118b5565b85858080601f016020809104026020016040519081016040528093929190818152602001838380828437600092019190915250610fee92505050565b6001600160a01b0316146113415760405162461bcd60e51b8152602060048201526011602482015270496e76616c6964207369676e617475726560781b60448201526064016102bd565b3360009081526004820160205260408120546113639063ffffffff16886125eb565b905063ffffffff8082169089161115801561138c5750600282015463ffffffff90811690891611155b6113d85760405162461bcd60e51b815260206004820152601e60248201527f496e76616c6964207265717565737420616d6f756e7420746f206d696e74000060448201526064016102bd565b610af8828787611918565b60006113ed6110f7565b90506113f981886119e4565b611404818686611918565b600080546040516001600160a01b03909116913480156108fc02929091818181858888f19350505050158015610af8573d6000803e3d6000fd5b60006114486110f7565b905061140481886119e4565b60405162461bcd60e51b81526020600482015260166024820152751899599bdc99535a5b9d081b5d5cdd081899481cd95d60521b60448201526064016102bd565b600654600160a01b900460ff166102e45760405162461bcd60e51b815260206004820152601460248201527314185d5cd8589b194e881b9bdd081c185d5cd95960621b60448201526064016102bd565b60007fa8f2f984173cd8cca5e53fabcb8633bca688bd0d7853bd91303ea474e46c1c04823561151f61151a60208601866120f1565b611a6e565b6040805160208101949094528301919091526060820152608001604051602081830303815290604052805190602001209050919050565b6000306001600160a01b037f0000000000000000000000000000000000000000000000000000000000000000161480156115af57507f000000000000000000000000000000000000000000000000000000000000000046145b156115d957507f000000000000000000000000000000000000000000000000000000000000000090565b50604080517f00000000000000000000000000000000000000000000000000000000000000006020808301919091527f0000000000000000000000000000000000000000000000000000000000000000828401527f000000000000000000000000000000000000000000000000000000000000000060608301524660808301523060a0808401919091528351808403909101815260c0909201909252805191012090565b6000808251604114156116b45760208301516040840151606085015160001a6116a887828585611b5a565b945094505050506116e6565b8251604014156116de57602083015160408401516116d3868383611c47565b9350935050506116e6565b506000905060025b9250929050565b600081600481111561170157611701612610565b141561170a5750565b600181600481111561171e5761171e612610565b141561176c5760405162461bcd60e51b815260206004820152601860248201527f45434453413a20696e76616c6964207369676e6174757265000000000000000060448201526064016102bd565b600281600481111561178057611780612610565b14156117ce5760405162461bcd60e51b815260206004820152601f60248201527f45434453413a20696e76616c6964207369676e6174757265206c656e6774680060448201526064016102bd565b60038160048111156117e2576117e2612610565b141561183b5760405162461bcd60e51b815260206004820152602260248201527f45434453413a20696e76616c6964207369676e6174757265202773272076616c604482015261756560f01b60648201526084016102bd565b600481600481111561184f5761184f612610565b1415610bd95760405162461bcd60e51b815260206004820152602260248201527f45434453413a20696e76616c6964207369676e6174757265202776272076616c604482015261756560f01b60648201526084016102bd565b6000610fe882600161231a565b604080517fef9dc355c17ad6f075396259f6f0e9d42a73ff0005d6be00a4d8e93c6722f6a6602082015263ffffffff831691810191909152336060820152600090610fe89060800160405160208183030381529060405280519060200120610f9a565b6040516bffffffffffffffffffffffff193360601b166020820152600090603401604051602081830303815290604052805190602001209050611992838380806020026020016040519081016040528093929190818152602001838360200280828437600092019190915250505050600386015483611c80565b6119de5760405162461bcd60e51b815260206004820152601b60248201527f41646472657373206973206e6f7420696e2077686974656c697374000000000060448201526064016102bd565b50505050565b3360009081526004830160205260408120546002840154611a0e9163ffffffff90811691166125eb565b905063ffffffff8082169083161115611a695760405162461bcd60e51b815260206004820152601e60248201527f496e76616c6964207265717565737420616d6f756e7420746f206d696e74000060448201526064016102bd565b505050565b600080826001600160401b03811115611a8957611a89611dae565b604051908082528060200260200182016040528015611ab2578160200160208202803683370190505b50905060005b83811015611b2957848482818110611ad257611ad2612490565b9050602002810190611ae49190612626565b604051611af2929190612467565b6040518091039020828281518110611b0c57611b0c612490565b602090810291909101015280611b21816124c6565b915050611ab8565b5080604051602001611b3b91906124e1565b6040516020818303038152906040528051906020012091505092915050565b6000807f7fffffffffffffffffffffffffffffff5d576e7357a4501ddfe92f46681b20a0831115611b915750600090506003611c3e565b8460ff16601b14158015611ba957508460ff16601c14155b15611bba5750600090506004611c3e565b6040805160008082526020820180845289905260ff881692820192909252606081018690526080810185905260019060a0016020604051602081039080840390855afa158015611c0e573d6000803e3d6000fd5b5050604051601f1901519150506001600160a01b038116611c3757600060019250925050611c3e565b9150600090505b94509492505050565b6000806001600160ff1b03831681611c6460ff86901c601b6125b1565b9050611c7287828885611b5a565b935093505050935093915050565b600082611c8d8584611c96565b14949350505050565b600081815b845181101561100a57611cc782868381518110611cba57611cba612490565b6020026020010151611cdb565b915080611cd3816124c6565b915050611c9b565b6000818310611cf7576000828152602084905260409020611d06565b60008381526020839052604090205b9392505050565b6102e461266c565b828054611d21906122cf565b90600052602060002090601f016020900481019282611d435760008555611d89565b82601f10611d5c5782800160ff19823516178555611d89565b82800160010185558215611d89579182015b82811115611d89578235825591602001919060010190611d6e565b50611d95929150611d99565b5090565b5b80821115611d955760008155600101611d9a565b634e487b7160e01b600052604160045260246000fd5b60008060408385031215611dd757600080fd5b823591506020808401356001600160401b0380821115611df657600080fd5b818601915086601f830112611e0a57600080fd5b813581811115611e1c57611e1c611dae565b8060051b604051601f19603f83011681018181108582111715611e4157611e41611dae565b604052918252848201925083810185019189831115611e5f57600080fd5b938501935b82851015611e7d57843584529385019392850192611e64565b8096505050505050509250929050565b600060208284031215611e9f57600080fd5b50919050565b60008083601f840112611eb757600080fd5b5081356001600160401b03811115611ece57600080fd5b6020830191508360208285010111156116e657600080fd5b600080600060408486031215611efb57600080fd5b83356001600160401b0380821115611f1257600080fd5b611f1e87838801611e8d565b94506020860135915080821115611f3457600080fd5b50611f4186828701611ea5565b9497909650939450505050565b600060208284031215611f6057600080fd5b81356001600160a01b0381168114611d0657600080fd5b803563ffffffff81168114611f8b57600080fd5b919050565b60008060008060008060808789031215611fa957600080fd5b611fb287611f77565b9550611fc060208801611f77565b945060408701356001600160401b0380821115611fdc57600080fd5b818901915089601f830112611ff057600080fd5b813581811115611fff57600080fd5b8a60208260051b850101111561201457600080fd5b60208301965080955050606089013591508082111561203257600080fd5b5061203f89828a01611ea5565b979a9699509497509295939492505050565b60008060008060006080868803121561206957600080fd5b85356001600160401b0381111561207f57600080fd5b61208b88828901611ea5565b909650945050602086013592506120a460408701611f77565b949793965091946060013592915050565b6000602082840312156120c757600080fd5b81356001600160401b038111156120dd57600080fd5b6120e984828501611e8d565b949350505050565b6000808335601e1984360301811261210857600080fd5b8301803591506001600160401b0382111561212257600080fd5b6020019150600581901b36038213156116e657600080fd5b81835281816020850137506000828201602090810191909152601f909101601f19169091010190565b60208082528181018390526000906040600585901b8401810190840186845b878110156122a057868403603f19018352603e19368a900381018335126121a857600080fd5b89833501604086018135875287820135601e198336030181126121ca57600080fd5b820180358982016001600160401b03808311156121e657600080fd5b8260051b8036038713156121f957600080fd5b60408c8e01529483905236849003909601956060808c019650948b01909401938160005b84811015612285578c8703605f19018852813589811261223c57600080fd5b86018e8101358481111561224f57600080fd5b80360386131561225e57600080fd5b61226c89826040850161213a565b985050508d820191508d8801975060018101905061221d565b50949a50505096890196505050928601925050600101612182565b5091979650505050505050565b6000602082840312156122bf57600080fd5b81518015158114611d0657600080fd5b600181811c908216806122e357607f821691505b60208210811415611e9f57634e487b7160e01b600052602260045260246000fd5b634e487b7160e01b600052601160045260246000fd5b600063ffffffff80831681851680830382111561233957612339612304565b01949350505050565b600081600019048311821515161561235c5761235c612304565b500290565b600081518084526020808501945080840160005b8381101561239157815187529582019590820190600101612375565b509495945050505050565b6001600160a01b03831681526040602082018190526000906120e990830184612361565b6001600160a01b0384168152606060208083018290526000916123e590840186612361565b8381036040850152600085546123fa816122cf565b80845260018281168015612415576001811461242957612457565b60ff19841686880152604086019450612457565b896000528660002060005b8481101561244f5781548882018a0152908301908801612434565b870188019550505b50929a9950505050505050505050565b8183823760009101908152919050565b60006020828403121561248957600080fd5b5051919050565b634e487b7160e01b600052603260045260246000fd5b60008235603e198336030181126124bc57600080fd5b9190910192915050565b60006000198214156124da576124da612304565b5060010190565b815160009082906020808601845b8381101561250b578151855293820193908201906001016124ef565b50929695505050505050565b6000808354612525816122cf565b6001828116801561253d576001811461254e5761250b565b60ff1984168752828701945061250b565b8760005260208060002060005b858110156125745781548a82015290840190820161255b565b505050959091019695505050505050565b600063ffffffff808316818516818304811182151516156125a8576125a8612304565b02949350505050565b600082198211156125c4576125c4612304565b500190565b6000826125e657634e487b7160e01b600052601260045260246000fd5b500690565b600063ffffffff8381169083168181101561260857612608612304565b039392505050565b634e487b7160e01b600052602160045260246000fd5b6000808335601e1984360301811261263d57600080fd5b8301803591506001600160401b0382111561265757600080fd5b6020019150368190038213156116e657600080fd5b634e487b7160e01b600052605160045260246000fdfea264697066735822122090e803c3b2951e459990914b36e43d79bd7adf75bbbf8fe48e42546ff6423f2864736f6c63430008090033",
  "linkReferences": {},
  "deployedLinkReferences": {}
}