{
  "_format": "hh-sol-artifact-1",
  "contractName": "MockVRFCoordinator",
  "sourceName": "contracts/__mocks__/MockVRFCoordinator.sol",
  "abi": [
    {
      "inputs": [],
      "name": "_requestCallbackGaslimit",
      "outputs": [
        {
          "internalType": "uint32",
          "name": "",
          "type": "uint32"
        }
      ],
      "stateMutability": "view",
      "type": "function"
    },
    {
      "inputs": [],
      "name": "_requestConfirmations",
      "outputs": [
        {
          "internalType": "uint16",
          "name": "",
          "type": "uint16"
        }
      ],
      "stateMutability": "view",
      "type": "function"
    },
    {
      "inputs": [],
      "name": "_requestKeyHash",
      "outputs": [
        {
          "internalType": "bytes32",
          "name": "",
          "type": "bytes32"
        }
      ],
      "stateMutability": "view",
      "type": "function"
    },
    {
      "inputs": [],
      "name": "_requestRandomWords",
      "outputs": [
        {
          "internalType": "uint32",
          "name": "",
          "type": "uint32"
        }
      ],
      "stateMutability": "view",
      "type": "function"
    },
    {
      "inputs": [],
      "name": "_requestSubId",
      "outputs": [
        {
          "internalType": "uint64",
          "name": "",
          "type": "uint64"
        }
      ],
      "stateMutability": "view",
      "type": "function"
    },
    {
      "inputs": [
        {
          "internalType": "address",
          "name": "",
          "type": "address"
        },
        {
          "internalType": "address",
          "name": "",
          "type": "address"
        },
        {
          "internalType": "uint256",
          "name": "",
          "type": "uint256"
        },
        {
          "internalType": "bytes",
          "name": "",
          "type": "bytes"
        }
      ],
      "name": "onERC721Received",
      "outputs": [
        {
          "internalType": "bytes4",
          "name": "",
          "type": "bytes4"
        }
      ],
      "stateMutability": "nonpayable",
      "type": "function"
    },
    {
      "inputs": [
        {
          "internalType": "bytes32",
          "name": "keyHash",
          "type": "bytes32"
        },
        {
          "internalType": "uint64",
          "name": "subId",
          "type": "uint64"
        },
        {
          "internalType": "uint16",
          "name": "confirmations",
          "type": "uint16"
        },
        {
          "internalType": "uint32",
          "name": "callbackGaslimit",
          "type": "uint32"
        },
        {
          "internalType": "uint32",
          "name": "requestWords",
          "type": "uint32"
        }
      ],
      "name": "requestRandomWords",
      "outputs": [
        {
          "internalType": "uint256",
          "name": "requestId",
          "type": "uint256"
        }
      ],
      "stateMutability": "nonpayable",
      "type": "function"
    }
  ],
  "bytecode": "0x60806040526000805534801561001457600080fd5b5061054d806100246000396000f3fe608060405234801561001057600080fd5b506004361061007d5760003560e01c8063680eb51b1161005b578063680eb51b1461010b5780636d12a4f21461013857806375e2c8461461014f57806389777dc31461015857600080fd5b8063150b7a0214610082578063391ea700146100be5780635d3b1d30146100ea575b600080fd5b6100a0610090366004610327565b630a85bd0160e11b949350505050565b6040516001600160e01b031990911681526020015b60405180910390f35b6002546100d590600160701b900463ffffffff1681565b60405163ffffffff90911681526020016100b5565b6100fd6100f8366004610417565b610180565b6040519081526020016100b5565b60025461011f9067ffffffffffffffff1681565b60405167ffffffffffffffff90911681526020016100b5565b6002546100d590600160501b900463ffffffff1681565b6100fd60015481565b60025461016d90600160401b900461ffff1681565b60405161ffff90911681526020016100b5565b60018581556002805467ffffffffffffffff871669ffffffffffffffffffff1990911617600160401b61ffff8716021767ffffffffffffffff60501b1916600160501b63ffffffff8681169190910263ffffffff60701b191691909117600160701b918516919091021790556040805182815280820190915260009133918391602080830190803683370190505090507fd98c53a1ae44d34ac380e69e077b00765782a8a80bfaa8d90898c6c882cf0aea816000815181106102445761024461048d565b6020908102919091010152604051631fe543e360e01b81527f8917b292ee2344aae592e732fb56b0873d40215a6bb8072b36706ba9f0007c1b93506001600160a01b03831690631fe543e3906102a090869085906004016104a3565b600060405180830381600087803b1580156102ba57600080fd5b505af11580156102ce573d6000803e3d6000fd5b5050505060016000808282546102e491906104f1565b909155509298975050505050505050565b80356001600160a01b038116811461030c57600080fd5b919050565b634e487b7160e01b600052604160045260246000fd5b6000806000806080858703121561033d57600080fd5b610346856102f5565b9350610354602086016102f5565b925060408501359150606085013567ffffffffffffffff8082111561037857600080fd5b818701915087601f83011261038c57600080fd5b81358181111561039e5761039e610311565b604051601f8201601f19908116603f011681019083821181831017156103c6576103c6610311565b816040528281528a60208487010111156103df57600080fd5b82602086016020830137600060208483010152809550505050505092959194509250565b803563ffffffff8116811461030c57600080fd5b600080600080600060a0868803121561042f57600080fd5b85359450602086013567ffffffffffffffff8116811461044e57600080fd5b9350604086013561ffff8116811461046557600080fd5b925061047360608701610403565b915061048160808701610403565b90509295509295909350565b634e487b7160e01b600052603260045260246000fd5b6000604082018483526020604081850152818551808452606086019150828701935060005b818110156104e4578451835293830193918301916001016104c8565b5090979650505050505050565b6000821982111561051257634e487b7160e01b600052601160045260246000fd5b50019056fea26469706673582212200299a186249a0a8af4d0667151f6075fdf673c6430bec90130e40096202e1e7d64736f6c63430008090033",
  "linkReferences": {},
  "deployedLinkReferences": {}
}