{
  "_format": "hh-sol-artifact-1",
  "contractName": "LilVillains",
  "sourceName": "contracts/LilVillains.sol",
  "abi": [
    {
      "inputs": [
        {
          "internalType": "address",
          "name": "villainMinter",
          "type": "address"
        },
        {
          "internalType": "address",
          "name": "royaltyAddressToSet",
          "type": "address"
        },
        {
          "internalType": "string",
          "name": "baseURI",
          "type": "string"
        },
        {
          "internalType": "string",
          "name": "collectionDescription",
          "type": "string"
        }
      ],
      "stateMutability": "nonpayable",
      "type": "constructor"
    },
    {
      "inputs": [
        {
          "internalType": "uint256",
          "name": "tokenId",
          "type": "uint256"
        }
      ],
      "name": "AlreadyHaveBaseAttributes",
      "type": "error"
    },
    {
      "inputs": [
        {
          "internalType": "uint256",
          "name": "tokenId",
          "type": "uint256"
        },
        {
          "internalType": "string",
          "name": "imagePath",
          "type": "string"
        }
      ],
      "name": "CannotSetImageWithoutBaseAttributes",
      "type": "error"
    },
    {
      "inputs": [],
      "name": "CollectionAlreadyRevealed",
      "type": "error"
    },
    {
      "inputs": [],
      "name": "DefaultImagePathRequired",
      "type": "error"
    },
    {
      "inputs": [
        {
          "internalType": "address",
          "name": "addressSent",
          "type": "address"
        },
        {
          "internalType": "bytes4",
          "name": "interfaceRequired",
          "type": "bytes4"
        }
      ],
      "name": "InterfaceIsNotImplemented",
      "type": "error"
    },
    {
      "inputs": [
        {
          "internalType": "string",
          "name": "method",
          "type": "string"
        }
      ],
      "name": "MethodNotSupported",
      "type": "error"
    },
    {
      "inputs": [
        {
          "internalType": "uint256",
          "name": "amountOfTokensToMint",
          "type": "uint256"
        },
        {
          "internalType": "uint256",
          "name": "currentSupply",
          "type": "uint256"
        },
        {
          "internalType": "uint256",
          "name": "maxSupportedSupply",
          "type": "uint256"
        }
      ],
      "name": "SupplyIsNotEnought",
      "type": "error"
    },
    {
      "inputs": [
        {
          "internalType": "uint256",
          "name": "tokenId",
          "type": "uint256"
        }
      ],
      "name": "TokenDoesNotExists",
      "type": "error"
    },
    {
      "inputs": [
        {
          "internalType": "uint256",
          "name": "tokenId",
          "type": "uint256"
        }
      ],
      "name": "TokenIsBlockedToTransfer",
      "type": "error"
    },
    {
      "inputs": [
        {
          "internalType": "address",
          "name": "to",
          "type": "address"
        },
        {
          "internalType": "uint256",
          "name": "tokenId",
          "type": "uint256"
        }
      ],
      "name": "TransferIsNotSupported",
      "type": "error"
    },
    {
      "inputs": [],
      "name": "ZeroAddressNotSupported",
      "type": "error"
    },
    {
      "anonymous": false,
      "inputs": [
        {
          "indexed": true,
          "internalType": "address",
          "name": "owner",
          "type": "address"
        },
        {
          "indexed": true,
          "internalType": "address",
          "name": "approved",
          "type": "address"
        },
        {
          "indexed": true,
          "internalType": "uint256",
          "name": "tokenId",
          "type": "uint256"
        }
      ],
      "name": "Approval",
      "type": "event"
    },
    {
      "anonymous": false,
      "inputs": [
        {
          "indexed": true,
          "internalType": "address",
          "name": "owner",
          "type": "address"
        },
        {
          "indexed": true,
          "internalType": "address",
          "name": "operator",
          "type": "address"
        },
        {
          "indexed": false,
          "internalType": "bool",
          "name": "approved",
          "type": "bool"
        }
      ],
      "name": "ApprovalForAll",
      "type": "event"
    },
    {
      "anonymous": false,
      "inputs": [
        {
          "indexed": true,
          "internalType": "bytes32",
          "name": "role",
          "type": "bytes32"
        },
        {
          "indexed": true,
          "internalType": "bytes32",
          "name": "previousAdminRole",
          "type": "bytes32"
        },
        {
          "indexed": true,
          "internalType": "bytes32",
          "name": "newAdminRole",
          "type": "bytes32"
        }
      ],
      "name": "RoleAdminChanged",
      "type": "event"
    },
    {
      "anonymous": false,
      "inputs": [
        {
          "indexed": true,
          "internalType": "bytes32",
          "name": "role",
          "type": "bytes32"
        },
        {
          "indexed": true,
          "internalType": "address",
          "name": "account",
          "type": "address"
        },
        {
          "indexed": true,
          "internalType": "address",
          "name": "sender",
          "type": "address"
        }
      ],
      "name": "RoleGranted",
      "type": "event"
    },
    {
      "anonymous": false,
      "inputs": [
        {
          "indexed": true,
          "internalType": "bytes32",
          "name": "role",
          "type": "bytes32"
        },
        {
          "indexed": true,
          "internalType": "address",
          "name": "account",
          "type": "address"
        },
        {
          "indexed": true,
          "internalType": "address",
          "name": "sender",
          "type": "address"
        }
      ],
      "name": "RoleRevoked",
      "type": "event"
    },
    {
      "anonymous": false,
      "inputs": [
        {
          "indexed": true,
          "internalType": "address",
          "name": "from",
          "type": "address"
        },
        {
          "indexed": true,
          "internalType": "address",
          "name": "to",
          "type": "address"
        },
        {
          "indexed": true,
          "internalType": "uint256",
          "name": "tokenId",
          "type": "uint256"
        }
      ],
      "name": "Transfer",
      "type": "event"
    },
    {
      "inputs": [],
      "name": "ALTER_ATTR_ROLE",
      "outputs": [
        {
          "internalType": "bytes32",
          "name": "",
          "type": "bytes32"
        }
      ],
      "stateMutability": "view",
      "type": "function"
    },
    {
      "inputs": [],
      "name": "ALTER_IMAGE_ROLE",
      "outputs": [
        {
          "internalType": "bytes32",
          "name": "",
          "type": "bytes32"
        }
      ],
      "stateMutability": "view",
      "type": "function"
    },
    {
      "inputs": [],
      "name": "DEFAULT_ADMIN_ROLE",
      "outputs": [
        {
          "internalType": "bytes32",
          "name": "",
          "type": "bytes32"
        }
      ],
      "stateMutability": "view",
      "type": "function"
    },
    {
      "inputs": [],
      "name": "MINTER_ROLE",
      "outputs": [
        {
          "internalType": "bytes32",
          "name": "",
          "type": "bytes32"
        }
      ],
      "stateMutability": "view",
      "type": "function"
    },
    {
      "inputs": [
        {
          "internalType": "address",
          "name": "to",
          "type": "address"
        },
        {
          "internalType": "uint256",
          "name": "tokenId",
          "type": "uint256"
        }
      ],
      "name": "approve",
      "outputs": [],
      "stateMutability": "nonpayable",
      "type": "function"
    },
    {
      "inputs": [
        {
          "internalType": "address",
          "name": "owner",
          "type": "address"
        }
      ],
      "name": "balanceOf",
      "outputs": [
        {
          "internalType": "uint256",
          "name": "",
          "type": "uint256"
        }
      ],
      "stateMutability": "view",
      "type": "function"
    },
    {
      "inputs": [
        {
          "internalType": "address",
          "name": "to",
          "type": "address"
        },
        {
          "internalType": "uint256[]",
          "name": "tokenIds",
          "type": "uint256[]"
        }
      ],
      "name": "batchMint",
      "outputs": [],
      "stateMutability": "nonpayable",
      "type": "function"
    },
    {
      "inputs": [
        {
          "internalType": "uint256",
          "name": "tokenId",
          "type": "uint256"
        }
      ],
      "name": "burn",
      "outputs": [],
      "stateMutability": "nonpayable",
      "type": "function"
    },
    {
      "inputs": [
        {
          "internalType": "uint256",
          "name": "tokenId",
          "type": "uint256"
        }
      ],
      "name": "getApproved",
      "outputs": [
        {
          "internalType": "address",
          "name": "",
          "type": "address"
        }
      ],
      "stateMutability": "view",
      "type": "function"
    },
    {
      "inputs": [],
      "name": "getDynamicSCAddresses",
      "outputs": [
        {
          "internalType": "address[2]",
          "name": "",
          "type": "address[2]"
        }
      ],
      "stateMutability": "view",
      "type": "function"
    },
    {
      "inputs": [
        {
          "internalType": "bytes32",
          "name": "role",
          "type": "bytes32"
        }
      ],
      "name": "getRoleAdmin",
      "outputs": [
        {
          "internalType": "bytes32",
          "name": "",
          "type": "bytes32"
        }
      ],
      "stateMutability": "view",
      "type": "function"
    },
    {
      "inputs": [
        {
          "internalType": "bytes32",
          "name": "role",
          "type": "bytes32"
        },
        {
          "internalType": "address",
          "name": "account",
          "type": "address"
        }
      ],
      "name": "grantRole",
      "outputs": [],
      "stateMutability": "nonpayable",
      "type": "function"
    },
    {
      "inputs": [
        {
          "internalType": "bytes32",
          "name": "role",
          "type": "bytes32"
        },
        {
          "internalType": "address",
          "name": "account",
          "type": "address"
        }
      ],
      "name": "hasRole",
      "outputs": [
        {
          "internalType": "bool",
          "name": "",
          "type": "bool"
        }
      ],
      "stateMutability": "view",
      "type": "function"
    },
    {
      "inputs": [
        {
          "internalType": "address",
          "name": "owner",
          "type": "address"
        },
        {
          "internalType": "address",
          "name": "operator",
          "type": "address"
        }
      ],
      "name": "isApprovedForAll",
      "outputs": [
        {
          "internalType": "bool",
          "name": "",
          "type": "bool"
        }
      ],
      "stateMutability": "view",
      "type": "function"
    },
    {
      "inputs": [],
      "name": "name",
      "outputs": [
        {
          "internalType": "string",
          "name": "",
          "type": "string"
        }
      ],
      "stateMutability": "view",
      "type": "function"
    },
    {
      "inputs": [
        {
          "internalType": "uint256",
          "name": "tokenId",
          "type": "uint256"
        }
      ],
      "name": "ownerOf",
      "outputs": [
        {
          "internalType": "address",
          "name": "",
          "type": "address"
        }
      ],
      "stateMutability": "view",
      "type": "function"
    },
    {
      "inputs": [
        {
          "internalType": "bytes32",
          "name": "role",
          "type": "bytes32"
        },
        {
          "internalType": "address",
          "name": "account",
          "type": "address"
        }
      ],
      "name": "renounceRole",
      "outputs": [],
      "stateMutability": "nonpayable",
      "type": "function"
    },
    {
      "inputs": [
        {
          "internalType": "bytes32",
          "name": "role",
          "type": "bytes32"
        },
        {
          "internalType": "address",
          "name": "account",
          "type": "address"
        }
      ],
      "name": "revokeRole",
      "outputs": [],
      "stateMutability": "nonpayable",
      "type": "function"
    },
    {
      "inputs": [
        {
          "internalType": "uint256",
          "name": "tokenId",
          "type": "uint256"
        },
        {
          "internalType": "uint256",
          "name": "salePrice",
          "type": "uint256"
        }
      ],
      "name": "royaltyInfo",
      "outputs": [
        {
          "internalType": "address",
          "name": "receiver",
          "type": "address"
        },
        {
          "internalType": "uint256",
          "name": "royaltyAmount",
          "type": "uint256"
        }
      ],
      "stateMutability": "view",
      "type": "function"
    },
    {
      "inputs": [
        {
          "internalType": "address",
          "name": "from",
          "type": "address"
        },
        {
          "internalType": "address",
          "name": "to",
          "type": "address"
        },
        {
          "internalType": "uint256",
          "name": "tokenId",
          "type": "uint256"
        }
      ],
      "name": "safeTransferFrom",
      "outputs": [],
      "stateMutability": "nonpayable",
      "type": "function"
    },
    {
      "inputs": [
        {
          "internalType": "address",
          "name": "from",
          "type": "address"
        },
        {
          "internalType": "address",
          "name": "to",
          "type": "address"
        },
        {
          "internalType": "uint256",
          "name": "tokenId",
          "type": "uint256"
        },
        {
          "internalType": "bytes",
          "name": "data",
          "type": "bytes"
        }
      ],
      "name": "safeTransferFrom",
      "outputs": [],
      "stateMutability": "nonpayable",
      "type": "function"
    },
    {
      "inputs": [
        {
          "internalType": "address",
          "name": "operator",
          "type": "address"
        },
        {
          "internalType": "bool",
          "name": "approved",
          "type": "bool"
        }
      ],
      "name": "setApprovalForAll",
      "outputs": [],
      "stateMutability": "nonpayable",
      "type": "function"
    },
    {
      "inputs": [
        {
          "internalType": "address",
          "name": "newAttributesControllerSC",
          "type": "address"
        }
      ],
      "name": "setAttributesControllerSC",
      "outputs": [],
      "stateMutability": "nonpayable",
      "type": "function"
    },
    {
      "inputs": [
        {
          "components": [
            {
              "internalType": "uint256",
              "name": "id",
              "type": "uint256"
            },
            {
              "internalType": "string[]",
              "name": "values",
              "type": "string[]"
            }
          ],
          "internalType": "struct NFTBaseAttributes[]",
          "name": "nFTsBaseAttributes",
          "type": "tuple[]"
        }
      ],
      "name": "setBaseAttributes",
      "outputs": [],
      "stateMutability": "nonpayable",
      "type": "function"
    },
    {
      "inputs": [
        {
          "internalType": "string",
          "name": "newBaseUri",
          "type": "string"
        }
      ],
      "name": "setBaseURI",
      "outputs": [],
      "stateMutability": "nonpayable",
      "type": "function"
    },
    {
      "inputs": [
        {
          "internalType": "string",
          "name": "newDefaultImagePath",
          "type": "string"
        }
      ],
      "name": "setDefaultImagePath",
      "outputs": [],
      "stateMutability": "nonpayable",
      "type": "function"
    },
    {
      "inputs": [
        {
          "internalType": "uint256",
          "name": "tokenId",
          "type": "uint256"
        },
        {
          "internalType": "string",
          "name": "newImageURL",
          "type": "string"
        }
      ],
      "name": "setImagePath",
      "outputs": [],
      "stateMutability": "nonpayable",
      "type": "function"
    },
    {
      "inputs": [
        {
          "internalType": "address",
          "name": "newRoyaltyAddress",
          "type": "address"
        }
      ],
      "name": "setRoyaltyAddress",
      "outputs": [],
      "stateMutability": "nonpayable",
      "type": "function"
    },
    {
      "inputs": [
        {
          "internalType": "address",
          "name": "newTransferControllerSC",
          "type": "address"
        }
      ],
      "name": "setTransferControllerSC",
      "outputs": [],
      "stateMutability": "nonpayable",
      "type": "function"
    },
    {
      "inputs": [
        {
          "internalType": "bytes4",
          "name": "interfaceId",
          "type": "bytes4"
        }
      ],
      "name": "supportsInterface",
      "outputs": [
        {
          "internalType": "bool",
          "name": "",
          "type": "bool"
        }
      ],
      "stateMutability": "view",
      "type": "function"
    },
    {
      "inputs": [],
      "name": "symbol",
      "outputs": [
        {
          "internalType": "string",
          "name": "",
          "type": "string"
        }
      ],
      "stateMutability": "view",
      "type": "function"
    },
    {
      "inputs": [
        {
          "internalType": "uint256",
          "name": "tokenId",
          "type": "uint256"
        }
      ],
      "name": "tokenURI",
      "outputs": [
        {
          "internalType": "string",
          "name": "",
          "type": "string"
        }
      ],
      "stateMutability": "view",
      "type": "function"
    },
    {
      "inputs": [],
      "name": "totalSupply",
      "outputs": [
        {
          "internalType": "uint256",
          "name": "",
          "type": "uint256"
        }
      ],
      "stateMutability": "view",
      "type": "function"
    },
    {
      "inputs": [
        {
          "internalType": "address",
          "name": "to",
          "type": "address"
        },
        {
          "internalType": "uint256",
          "name": "tokenId",
          "type": "uint256"
        }
      ],
      "name": "transferBlockedToken",
      "outputs": [],
      "stateMutability": "nonpayable",
      "type": "function"
    },
    {
      "inputs": [
        {
          "internalType": "address",
          "name": "from",
          "type": "address"
        },
        {
          "internalType": "address",
          "name": "to",
          "type": "address"
        },
        {
          "internalType": "uint256",
          "name": "tokenId",
          "type": "uint256"
        }
      ],
      "name": "transferFrom",
      "outputs": [],
      "stateMutability": "nonpayable",
      "type": "function"
    },
    {
      "inputs": [
        {
          "internalType": "address",
          "name": "newOwner",
          "type": "address"
        }
      ],
      "name": "transferOwnership",
      "outputs": [],
      "stateMutability": "nonpayable",
      "type": "function"
    }
  ],
  "bytecode": "0x600060085562000350602090811b62000eb7176001600160401b03908116608081905262000393831b62000eeb17821660a08190526200039b90931b62000ef31790911660c0819052601080546001600160801b0319169092176801000000000000000090930292909217600160801b600160c01b031916600160801b9092029190911790556011805460ff19169055600a61024081815269109858dad9dc9bdd5b9960b21b6102605260e09081526004610280818152634579657360e01b6102a052610100526102c0818152634561727360e01b6102e0526101205260056103009081526409adeeae8d60db1b61032052610140526103408181526329b5b4b760e11b6103605261016052600761038090815266436c6f7468657360c81b6103a052610180526103c0908152634e6f736560e01b6103e0526101a05260036104009081526212185d60ea1b610420526101c052600b6104408181526a4163636573736f7269657360a81b610460526101e05260066104809081526512195b1b595d60d21b6104a052610200526105006040526104c0928352694261636b206974656d7360b01b6104e05261022092909252620001c091601291906200058e565b50348015620001ce57600080fd5b506040516200446038038062004460833981016040819052620001f191620007e1565b604080518082018252600b81526a4c696c56696c6c61696e7360a81b60208083019182528351808501909452600384526213125360ea1b9084015260008054605560a01b6001600160b01b03199091166001600160a01b03891617179055815185938593929091839183916200026a91600291620005e5565b50805162000280906003906020840190620005e5565b505084516200029a9350600d9250602086019150620005e5565b508051620002b090600f906020840190620005e5565b50620002c291506000905033620003e8565b620002ee7fcd9432c2aa67c92e60603cf483ad237463ce9cf9e1a526ac214ec10afda13f7185620003e8565b6200031a7f76b9af63296879de52c14ae8fa46bb02358f8db5745dcdb1ba9d7866df41dad533620003e8565b620003467f9f2df0fed2c77648de5860a4cc508cd0818c85b8b8a1ab4ceeef8d981c8956a685620003e8565b5050505062000a40565b6060600d6200036a836200047160201b62000f331760201c565b6040516020016200037d929190620008cc565b6040516020818303038152906040529050919050565b600192915050565b604051637204585560e01b815260206004820152601460248201527f5472616e73666572426c6f636b6564546f6b656e000000000000000000000000604482015260640160405180910390fd5b60008281526001602090815260408083206001600160a01b038516845290915290205460ff166200046d5760008281526001602081815260408084206001600160a01b0386168086529252808420805460ff19169093179092559051339285917f2f8788117e7eff1d82e926ec794901d17c78024a50270940304540a733656f0d9190a45b5050565b606081620004965750506040805180820190915260018152600360fc1b602082015290565b8160005b8115620004c65780620004ad8162000993565b9150620004be9050600a83620009c7565b91506200049a565b6000816001600160401b03811115620004e357620004e362000707565b6040519080825280601f01601f1916602001820160405280156200050e576020820181803683370190505b5090505b8415620005865762000526600183620009de565b915062000535600a86620009f8565b6200054290603062000a0f565b60f81b8183815181106200055a576200055a62000a2a565b60200101906001600160f81b031916908160001a9053506200057e600a86620009c7565b945062000512565b949350505050565b82600b8101928215620005d3579160200282015b82811115620005d35782518051620005c2918491602090910190620005e5565b5091602001919060010190620005a2565b50620005e192915062000670565b5090565b828054620005f39062000871565b90600052602060002090601f01602090048101928262000617576000855562000662565b82601f106200063257805160ff191683800117855562000662565b8280016001018555821562000662579182015b828111156200066257825182559160200191906001019062000645565b50620005e192915062000691565b80821115620005e1576000620006878282620006a8565b5060010162000670565b5b80821115620005e1576000815560010162000692565b508054620006b69062000871565b6000825580601f10620006c7575050565b601f016020900490600052602060002090810190620006e7919062000691565b50565b80516001600160a01b03811681146200070257600080fd5b919050565b634e487b7160e01b600052604160045260246000fd5b60005b838110156200073a57818101518382015260200162000720565b838111156200074a576000848401525b50505050565b600082601f8301126200076257600080fd5b81516001600160401b03808211156200077f576200077f62000707565b604051601f8301601f19908116603f01168101908282118183101715620007aa57620007aa62000707565b81604052838152866020858801011115620007c457600080fd5b620007d78460208301602089016200071d565b9695505050505050565b60008060008060808587031215620007f857600080fd5b6200080385620006ea565b93506200081360208601620006ea565b60408601519093506001600160401b03808211156200083157600080fd5b6200083f8883890162000750565b935060608701519150808211156200085657600080fd5b50620008658782880162000750565b91505092959194509250565b600181811c908216806200088657607f821691505b60208210811415620008a857634e487b7160e01b600052602260045260246000fd5b50919050565b60008151620008c28185602086016200071d565b9290920192915050565b600080845481600182811c915080831680620008e957607f831692505b60208084108214156200090a57634e487b7160e01b86526022600452602486fd5b818015620009215760018114620009335762000962565b60ff1986168952848901965062000962565b60008b81526020902060005b868110156200095a5781548b8201529085019083016200093f565b505084890196505b505050505050620009748185620008ae565b95945050505050565b634e487b7160e01b600052601160045260246000fd5b6000600019821415620009aa57620009aa6200097d565b5060010190565b634e487b7160e01b600052601260045260246000fd5b600082620009d957620009d9620009b1565b500490565b600082821015620009f357620009f36200097d565b500390565b60008262000a0a5762000a0a620009b1565b500690565b6000821982111562000a255762000a256200097d565b500190565b634e487b7160e01b600052603260045260246000fd5b613a108062000a506000396000f3fe608060405234801561001057600080fd5b506004361061021c5760003560e01c806355f804b311610125578063a2ee4b26116100ad578063d53913931161007c578063d5391393146104e6578063d547741f1461050d578063e5343da614610520578063e985e9c514610533578063f2fde38b1461056f57600080fd5b8063a2ee4b261461049a578063a7638dff146104ad578063b88d4fde146104c0578063c87b56dd146104d357600080fd5b80638d8f3e70116100f45780638d8f3e701461045157806391d148541461046457806395d89b4114610477578063a217fddf1461047f578063a22cb4651461048757600080fd5b806355f804b3146104035780636352211e146104165780636eaea8fd1461042957806370a082311461043e57600080fd5b8063248a9ca3116101a857806337e57dd21161017757806337e57dd2146103a4578063389ca597146103b757806342842e0e146103ca57806342966c68146103dd5780634684d7e9146103f057600080fd5b8063248a9ca3146103285780632a55205a1461034c5780632f2ff15d1461037e57806336568abe1461039157600080fd5b8063095ea7b3116101ef578063095ea7b31461029e5780630ff94d1b146102b157806318160ddd146102e657806323b872dd146102ee57806323c3a0381461030157600080fd5b806301ffc9a71461022157806306d254da1461024957806306fdde031461025e578063081812fc14610273575b600080fd5b61023461022f366004612c75565b610582565b60405190151581526020015b60405180910390f35b61025c610257366004612cae565b6105ad565b005b6102666105db565b6040516102409190612d21565b610286610281366004612d34565b61066d565b6040516001600160a01b039091168152602001610240565b61025c6102ac366004612d4d565b610694565b6102d87f76b9af63296879de52c14ae8fa46bb02358f8db5745dcdb1ba9d7866df41dad581565b604051908152602001610240565b6008546102d8565b61025c6102fc366004612d77565b6107af565b6102d87fcd9432c2aa67c92e60603cf483ad237463ce9cf9e1a526ac214ec10afda13f7181565b6102d8610336366004612d34565b6000908152600160208190526040909120015490565b61035f61035a366004612db3565b6107e1565b604080516001600160a01b039093168352602083019190915201610240565b61025c61038c366004612dd5565b61081b565b61025c61039f366004612dd5565b610841565b61025c6103b2366004612cae565b6108bf565b61025c6103c5366004612d4d565b6108d3565b61025c6103d8366004612d77565b610928565b61025c6103eb366004612d34565b610943565b61025c6103fe366004612e43565b610964565b61025c610411366004612e95565b61099f565b610286610424366004612d34565b6109ed565b610431610a4d565b6040516102409190612f06565b6102d861044c366004612cae565b610a6f565b61025c61045f366004612cae565b610af5565b610234610472366004612dd5565b610b09565b610266610b34565b6102d8600081565b61025c610495366004612f4e565b610b43565b61025c6104a8366004612f85565b610b4e565b61025c6104bb366004612e95565b610d66565b61025c6104ce3660046130bb565b610d7d565b6102666104e1366004612d34565b610daf565b6102d87f9f2df0fed2c77648de5860a4cc508cd0818c85b8b8a1ab4ceeef8d981c8956a681565b61025c61051b366004612dd5565b610e14565b61025c61052e366004613156565b610e3a565b61023461054136600461319c565b6001600160a01b03918216600090815260076020908152604080832093909416825291909152205460ff1690565b61025c61057d366004612cae565b610e6e565b60006001600160e01b0319821663e46a9ccf60e01b14806105a757506105a782611038565b92915050565b60006105b881611078565b50600080546001600160a01b0319166001600160a01b0392909216919091179055565b6060600280546105ea906131c6565b80601f0160208091040260200160405190810160405280929190818152602001828054610616906131c6565b80156106635780601f1061063857610100808354040283529160200191610663565b820191906000526020600020905b81548152906001019060200180831161064657829003601f168201915b5050505050905090565b600061067882611085565b506000908152600660205260409020546001600160a01b031690565b600061069f826109ed565b9050806001600160a01b0316836001600160a01b031614156107125760405162461bcd60e51b815260206004820152602160248201527f4552433732313a20617070726f76616c20746f2063757272656e74206f776e656044820152603960f91b60648201526084015b60405180910390fd5b336001600160a01b038216148061072e575061072e8133610541565b6107a05760405162461bcd60e51b815260206004820152603e60248201527f4552433732313a20617070726f76652063616c6c6572206973206e6f7420746f60448201527f6b656e206f776e6572206e6f7220617070726f76656420666f7220616c6c00006064820152608401610709565b6107aa83836110e4565b505050565b6107ba335b82611152565b6107d65760405162461bcd60e51b8152600401610709906131fb565b6107aa8383836111d0565b6000806107ed84611377565b6000546001600160a01b0381169250610812908490600160a01b900461ffff166113b1565b90509250929050565b6000828152600160208190526040909120015461083781611078565b6107aa83836113d5565b6001600160a01b03811633146108b15760405162461bcd60e51b815260206004820152602f60248201527f416363657373436f6e74726f6c3a2063616e206f6e6c792072656e6f756e636560448201526e103937b632b9903337b91039b2b63360891b6064820152608401610709565b6108bb8282611440565b5050565b60006108ca81611078565b6108bb826114a7565b816001600160a01b0381166108fb5760405163072d046f60e21b815260040160405180910390fd5b6107aa8383601060000160109054906101000a90048015612b2e02176001600160401b031663ffffffff16565b6107aa83838360405180602001604052806000815250610d7d565b61094c816115f8565b6008805490600061095c8361325f565b919050555050565b7f9f2df0fed2c77648de5860a4cc508cd0818c85b8b8a1ab4ceeef8d981c8956a661098e81611078565b610999848484611626565b50505050565b60006109aa81611078565b60115460ff16156109ce5760405163b22df23960e01b815260040160405180910390fd5b6109da600d8484612b38565b50506011805460ff191660011790555050565b6000818152600460205260408120546001600160a01b0316806105a75760405162461bcd60e51b8152602060048201526018602482015277115490cdcc8c4e881a5b9d985b1a59081d1bdad95b88125160421b6044820152606401610709565b610a55612bb8565b6000610a6081611078565b610a68611691565b91505b5090565b60006001600160a01b038216610ad95760405162461bcd60e51b815260206004820152602960248201527f4552433732313a2061646472657373207a65726f206973206e6f7420612076616044820152683634b21037bbb732b960b91b6064820152608401610709565b506001600160a01b031660009081526005602052604090205490565b6000610b0081611078565b6108bb826116c0565b60009182526001602090815260408084206001600160a01b0393909316845291905290205460ff1690565b6060600380546105ea906131c6565b6108bb3383836117cf565b7fcd9432c2aa67c92e60603cf483ad237463ce9cf9e1a526ac214ec10afda13f71610b7881611078565b60005b82811015610999576000848483818110610b9757610b97613276565b9050602002810190610ba9919061328c565b610bb2906132cf565b905060008160200151516001600160401b03811115610bd357610bd3612fc6565b604051908082528060200260200182016040528015610c2857816020015b610c1560405180606001604052806060815260200160608152602001606081525090565b815260200190600190039081610bf15790505b50905060005b8151811015610d44576040805160808101909152600060608201908152815260208101601283600b8110610c6457610c64613276565b018054610c70906131c6565b80601f0160208091040260200160405190810160405280929190818152602001828054610c9c906131c6565b8015610ce95780601f10610cbe57610100808354040283529160200191610ce9565b820191906000526020600020905b815481529060010190602001808311610ccc57829003601f168201915b5050505050815260200184602001518381518110610d0957610d09613276565b6020026020010151815250828281518110610d2657610d26613276565b60200260200101819052508080610d3c90613393565b915050610c2e565b508151610d51908261189e565b50508080610d5e90613393565b915050610b7b565b6000610d7181611078565b610999600e8484612b38565b610d873383611152565b610da35760405162461bcd60e51b8152600401610709906131fb565b61099984848484611923565b606081610dd3816000908152600460205260409020546001600160a01b0316151590565b610df3576040516312699e4760e31b815260048101829052602401610709565b601054610e0b9084908015612b2e021763ffffffff16565b91505b50919050565b60008281526001602081905260409091200154610e3081611078565b6107aa8383611440565b7f76b9af63296879de52c14ae8fa46bb02358f8db5745dcdb1ba9d7866df41dad5610e6481611078565b6107aa8383611956565b6000610e7981611078565b816001600160a01b038116610ea15760405163072d046f60e21b815260040160405180910390fd5b610eac60008461081b565b6107aa600033610e14565b6060600d610ec483610f33565b604051602001610ed59291906133ca565b6040516020818303038152906040529050919050565b600192915050565b604051637204585560e01b81526020600482015260146024820152732a3930b739b332b9213637b1b5b2b22a37b5b2b760611b6044820152606401610709565b606081610f575750506040805180820190915260018152600360fc1b602082015290565b8160005b8115610f815780610f6b81613393565b9150610f7a9050600a83613487565b9150610f5b565b6000816001600160401b03811115610f9b57610f9b612fc6565b6040519080825280601f01601f191660200182016040528015610fc5576020820181803683370190505b5090505b841561103057610fda60018361349b565b9150610fe7600a866134b2565b610ff29060306134c6565b60f81b81838151811061100757611007613276565b60200101906001600160f81b031916908160001a905350611029600a86613487565b9450610fc9565b949350505050565b60006001600160e01b031982166380ac58cd60e01b148061106957506001600160e01b03198216635b5e139f60e01b145b806105a757506105a78261197f565b61108281336119a4565b50565b6000818152600460205260409020546001600160a01b03166110825760405162461bcd60e51b8152602060048201526018602482015277115490cdcc8c4e881a5b9d985b1a59081d1bdad95b88125160421b6044820152606401610709565b600081815260066020526040902080546001600160a01b0319166001600160a01b0384169081179091558190611119826109ed565b6001600160a01b03167f8c5be1e5ebec7d5bd14f71427d1e84f3dd0314c0f7b2291e5b200ac8c7c3b92560405160405180910390a45050565b60008061115e836109ed565b9050806001600160a01b0316846001600160a01b031614806111a557506001600160a01b0380821660009081526007602090815260408083209388168352929052205460ff165b806110305750836001600160a01b03166111be8461066d565b6001600160a01b031614949350505050565b826001600160a01b03166111e3826109ed565b6001600160a01b0316146112475760405162461bcd60e51b815260206004820152602560248201527f4552433732313a207472616e736665722066726f6d20696e636f72726563742060448201526437bbb732b960d91b6064820152608401610709565b6001600160a01b0382166112a95760405162461bcd60e51b8152602060048201526024808201527f4552433732313a207472616e7366657220746f20746865207a65726f206164646044820152637265737360e01b6064820152608401610709565b6112b4838383611a08565b6112bf6000826110e4565b6001600160a01b03831660009081526005602052604081208054600192906112e890849061349b565b90915550506001600160a01b03821660009081526005602052604081208054600192906113169084906134c6565b909155505060008181526004602052604080822080546001600160a01b0319166001600160a01b0386811691821790925591518493918716917fddf252ad1be2c89b69c2b068fc378daa952ba7f163c4a11628f55a4df523b3ef91a4505050565b60008181526004602052604090205481906001600160a01b03166108bb576040516312699e4760e31b815260048101829052602401610709565b60006103e86113c461ffff8416856134de565b6113ce9190613487565b9392505050565b6113df8282610b09565b6108bb5760008281526001602081815260408084206001600160a01b0386168086529252808420805460ff19169093179092559051339285917f2f8788117e7eff1d82e926ec794901d17c78024a50270940304540a733656f0d9190a45050565b61144a8282610b09565b156108bb5760008281526001602090815260408083206001600160a01b0385168085529252808320805460ff1916905551339285917ff6391f5c32d9c69d2a47ea670b442974b53935d1edc7fd64eb21e047a839171b9190a45050565b806001600160a01b0381166114cf5760405163072d046f60e21b815260040160405180910390fd5b6040516301ffc9a760e01b8152638dbb1a1360e01b6004820181905283916001600160a01b038316906301ffc9a79060240160206040518083038186803b15801561151957600080fd5b505afa15801561152d573d6000803e3d6000fd5b505050506040513d601f19601f8201168201806040525081019061155191906134fd565b61157257818160405163201e6d6560e11b815260040161070992919061351a565b5050600c80546001600160a01b039093166001600160a01b0319909316929092179091555060108054611ae06001600160401b03908116600160801b0267ffffffffffffffff60801b19611a559290921668010000000000000000029190911677ffffffffffffffffffffffffffffffff00000000000000001990921691909117179055565b611601336107b4565b61161d5760405162461bcd60e51b8152600401610709906131fb565b61108281611bb4565b611631838383611c5b565b60088054829182916000906116479084906134c6565b90915550600090505b8181101561168a5761167a8585858481811061166e5761166e613276565b90506020020135611cab565b61168381611cc5565b9050611650565b5050505050565b611699612bb8565b5060408051808201909152600b546001600160a01b039081168252600c5416602082015290565b806001600160a01b0381166116e85760405163072d046f60e21b815260040160405180910390fd5b6040516301ffc9a760e01b8152638710386160e01b6004820181905283916001600160a01b038316906301ffc9a79060240160206040518083038186803b15801561173257600080fd5b505afa158015611746573d6000803e3d6000fd5b505050506040513d601f19601f8201168201806040525081019061176a91906134fd565b61178b57818160405163201e6d6560e11b815260040161070992919061351a565b61179484611cd2565b5050600b80546001600160a01b0319166001600160a01b039390931692909217909155506010805467ffffffffffffffff1916611d00179055565b816001600160a01b0316836001600160a01b031614156118315760405162461bcd60e51b815260206004820152601960248201527f4552433732313a20617070726f766520746f2063616c6c6572000000000000006044820152606401610709565b6001600160a01b03838116600081815260076020908152604080832094871680845294825291829020805460ff191686151590811790915591519182527f17307eab39ab6107e8899845ad3d59bd9653f200f220920489ca2b5937696c31910160405180910390a3505050565b6118a88282612434565b600082815260096020526040908190209051631ca2a00b60e11b815273__$76aaa174a4a37c573814e3ab8089977c33$__916339454016916118ef919085906004016135d3565b60006040518083038186803b15801561190757600080fd5b505af415801561191b573d6000803e3d6000fd5b505050505050565b61192e8484846111d0565b61193a84848484612464565b6109995760405162461bcd60e51b8152600401610709906135ec565b6119608282612571565b6000828152600a6020908152604090912082516107aa92840190612bd6565b60006001600160e01b03198216637965db0b60e01b14806105a757506105a7826125a1565b6119ae8282610b09565b6108bb576119c6816001600160a01b031660146125d6565b6119d18360206125d6565b6040516020016119e292919061363e565b60408051601f198184030181529082905262461bcd60e51b825261070991600401612d21565b611a358382601060000160089054906101000a90048015612b2e02176001600160401b031663ffffffff16565b6107aa57604051634e0b80f560e01b815260048101829052602401610709565b600c5460405163148740bd60e01b81523060048201526001600160a01b03848116602483015260448201849052600092169063148740bd9060640160206040518083038186803b158015611aa857600080fd5b505afa158015611abc573d6000803e3d6000fd5b505050506040513d601f19601f820116820180604052508101906113ce91906134fd565b611aea8282612771565b600c546040516366ec25e160e11b8152306004820152602481018390526001600160a01b039091169063cdd84bc29060440160006040518083038186803b158015611b3457600080fd5b505afa158015611b48573d6000803e3d6000fd5b50505050611b5682826127bb565b600c54604051631539045b60e21b8152306004820152602481018390526001600160a01b03909116906354e4116c9060440160006040518083038186803b158015611ba057600080fd5b505afa15801561191b573d6000803e3d6000fd5b6000611bbf826109ed565b9050611bcd81600084611a08565b611bd86000836110e4565b6001600160a01b0381166000908152600560205260408120805460019290611c0190849061349b565b909155505060008281526004602052604080822080546001600160a01b0319169055518391906001600160a01b038416907fddf252ad1be2c89b69c2b068fc378daa952ba7f163c4a11628f55a4df523b3ef908390a45050565b6000611c6660085490565b90506000611c7483836134c6565b9050611e6181111561168a57604051631c4831ab60e21b81526004810184905260248101839052611e616044820152606401610709565b6108bb8282604051806020016040528060008152506127c6565b60006105a78260016134c6565b600e8054611cdf906131c6565b15159050611082576040516308f2753b60e41b815260040160405180910390fd5b60606000611d0d83610eb7565b9050600060096000858152602001908152602001600020805480602002602001604051908101604052809291908181526020016000905b82821015611f2c5783829060005260206000209060030201604051806060016040529081600082018054611d77906131c6565b80601f0160208091040260200160405190810160405280929190818152602001828054611da3906131c6565b8015611df05780601f10611dc557610100808354040283529160200191611df0565b820191906000526020600020905b815481529060010190602001808311611dd357829003601f168201915b50505050508152602001600182018054611e09906131c6565b80601f0160208091040260200160405190810160405280929190818152602001828054611e35906131c6565b8015611e825780601f10611e5757610100808354040283529160200191611e82565b820191906000526020600020905b815481529060010190602001808311611e6557829003601f168201915b50505050508152602001600282018054611e9b906131c6565b80601f0160208091040260200160405190810160405280929190818152602001828054611ec7906131c6565b8015611f145780601f10611ee957610100808354040283529160200191611f14565b820191906000526020600020905b815481529060010190602001808311611ef757829003601f168201915b50505050508152505081526020019060010190611d44565b505050509050805160001461242d57600b54604051638710386160e01b8152306004820152602481018690526000916001600160a01b03169063871038619060440160006040518083038186803b158015611f8657600080fd5b505afa158015611f9a573d6000803e3d6000fd5b505050506040513d6000823e601f3d908101601f19168201604052611fc291908101906136f8565b80519091501561227057600085815260096020908152604080832080548251818502810185019093528083529193909284015b828210156121dd5783829060005260206000209060030201604051806060016040529081600082018054612028906131c6565b80601f0160208091040260200160405190810160405280929190818152602001828054612054906131c6565b80156120a15780601f10612076576101008083540402835291602001916120a1565b820191906000526020600020905b81548152906001019060200180831161208457829003601f168201915b505050505081526020016001820180546120ba906131c6565b80601f01602080910402602001604051908101604052809291908181526020018280546120e6906131c6565b80156121335780601f1061210857610100808354040283529160200191612133565b820191906000526020600020905b81548152906001019060200180831161211657829003601f168201915b5050505050815260200160028201805461214c906131c6565b80601f0160208091040260200160405190810160405280929190818152602001828054612178906131c6565b80156121c55780601f1061219a576101008083540402835291602001916121c5565b820191906000526020600020905b8154815290600101906020018083116121a857829003601f168201915b50505050508152505081526020019060010190611ff5565b5050604051630e914a8160e41b815273__$76aaa174a4a37c573814e3ab8089977c33$__9363e914a8109350612219925090859060040161382a565b60006040518083038186803b15801561223157600080fd5b505af4158015612245573d6000803e3d6000fd5b505050506040513d6000823e601f3d908101601f1916820160405261226d91908101906136f8565b91505b600061227b866127f9565b9050600061228887610f33565b604051602001612298919061384f565b60408051808303601f19018152828201825260008084526020938401819052825180840190935280546001600160a01b0381168452600160a01b900461ffff16938301939093529250905060006040518060a00160405280600f80546122fd906131c6565b80601f0160208091040260200160405190810160405280929190818152602001828054612329906131c6565b80156123765780601f1061234b57610100808354040283529160200191612376565b820191906000526020600020905b81548152906001019060200180831161235957829003601f168201915b505050505081526020018581526020018481526020018781526020018381525090508073__$76aaa174a4a37c573814e3ab8089977c33$__6355edf07290916040518263ffffffff1660e01b81526004016123d19190613878565b60006040518083038186803b1580156123e957600080fd5b505af41580156123fd573d6000803e3d6000fd5b505050506040513d6000823e601f3d908101601f19168201604052612425919081019061391d565b965050505050505b5092915050565b600082815260096020526040902054156108bb57604051634185200960e11b815260048101839052602401610709565b60006001600160a01b0384163b1561256657604051630a85bd0160e11b81526001600160a01b0385169063150b7a02906124a8903390899088908890600401613951565b602060405180830381600087803b1580156124c257600080fd5b505af19250505080156124f2575060408051601f3d908101601f191682019092526124ef9181019061398e565b60015b61254c573d808015612520576040519150601f19603f3d011682016040523d82523d6000602084013e612525565b606091505b5080516125445760405162461bcd60e51b8152600401610709906135ec565b805181602001fd5b6001600160e01b031916630a85bd0160e11b149050611030565b506001949350505050565b6000828152600960205260409020546108bb5781816040516331e5c31960e01b81526004016107099291906139ab565b60006001600160e01b0319821663152a902d60e11b14806105a757506301ffc9a760e01b6001600160e01b03198316146105a7565b606060006125e58360026134de565b6125f09060026134c6565b6001600160401b0381111561260757612607612fc6565b6040519080825280601f01601f191660200182016040528015612631576020820181803683370190505b509050600360fc1b8160008151811061264c5761264c613276565b60200101906001600160f81b031916908160001a905350600f60fb1b8160018151811061267b5761267b613276565b60200101906001600160f81b031916908160001a905350600061269f8460026134de565b6126aa9060016134c6565b90505b6001811115612722576f181899199a1a9b1b9c1cb0b131b232b360811b85600f16601081106126de576126de613276565b1a60f81b8282815181106126f4576126f4613276565b60200101906001600160f81b031916908160001a90535060049490941c9361271b8161325f565b90506126ad565b5083156113ce5760405162461bcd60e51b815260206004820181905260248201527f537472696e67733a20686578206c656e67746820696e73756666696369656e746044820152606401610709565b61278c338383604051806020016040528060008152506128ed565b6108bb576040516393268f6160e01b81526001600160a01b038316600482015260248101829052604401610709565b6108bb3383836111d0565b6127d083836129e0565b6127dd6000848484612464565b6107aa5760405162461bcd60e51b8152600401610709906135ec565b60606000600e61280884610f33565b6040516020016128199291906133ca565b60408051601f198184030181529181526000858152600a60205290812080549293509091612846906131c6565b905011156105a7576000838152600a602052604090208054612867906131c6565b80601f0160208091040260200160405190810160405280929190818152602001828054612893906131c6565b80156128e05780601f106128b5576101008083540402835291602001916128e0565b820191906000526020600020905b8154815290600101906020018083116128c357829003601f168201915b5050505050905092915050565b60006001600160a01b0384163b1561256657604051630a85bd0160e11b81526001600160a01b0385169063150b7a0290612931903390899088908890600401613951565b602060405180830381600087803b15801561294b57600080fd5b505af192505050801561297b575060408051601f3d908101601f191682019092526129789181019061398e565b60015b61254c573d8080156129a9576040519150601f19603f3d011682016040523d82523d6000602084013e6129ae565b606091505b508051612544576040516393268f6160e01b81526001600160a01b038616600482015260248101859052604401610709565b6001600160a01b038216612a365760405162461bcd60e51b815260206004820181905260248201527f4552433732313a206d696e7420746f20746865207a65726f20616464726573736044820152606401610709565b6000818152600460205260409020546001600160a01b031615612a9b5760405162461bcd60e51b815260206004820152601c60248201527f4552433732313a20746f6b656e20616c7265616479206d696e746564000000006044820152606401610709565b612aa760008383611a08565b6001600160a01b0382166000908152600560205260408120805460019290612ad09084906134c6565b909155505060008181526004602052604080822080546001600160a01b0319166001600160a01b03861690811790915590518392907fddf252ad1be2c89b69c2b068fc378daa952ba7f163c4a11628f55a4df523b3ef908290a45050565b612b366139c4565b565b828054612b44906131c6565b90600052602060002090601f016020900481019282612b665760008555612bac565b82601f10612b7f5782800160ff19823516178555612bac565b82800160010185558215612bac579182015b82811115612bac578235825591602001919060010190612b91565b50610a6b929150612c4a565b60405180604001604052806002906020820280368337509192915050565b828054612be2906131c6565b90600052602060002090601f016020900481019282612c045760008555612bac565b82601f10612c1d57805160ff1916838001178555612bac565b82800160010185558215612bac579182015b82811115612bac578251825591602001919060010190612c2f565b5b80821115610a6b5760008155600101612c4b565b6001600160e01b03198116811461108257600080fd5b600060208284031215612c8757600080fd5b81356113ce81612c5f565b80356001600160a01b0381168114612ca957600080fd5b919050565b600060208284031215612cc057600080fd5b6113ce82612c92565b60005b83811015612ce4578181015183820152602001612ccc565b838111156109995750506000910152565b60008151808452612d0d816020860160208601612cc9565b601f01601f19169290920160200192915050565b6020815260006113ce6020830184612cf5565b600060208284031215612d4657600080fd5b5035919050565b60008060408385031215612d6057600080fd5b612d6983612c92565b946020939093013593505050565b600080600060608486031215612d8c57600080fd5b612d9584612c92565b9250612da360208501612c92565b9150604084013590509250925092565b60008060408385031215612dc657600080fd5b50508035926020909101359150565b60008060408385031215612de857600080fd5b8235915061081260208401612c92565b60008083601f840112612e0a57600080fd5b5081356001600160401b03811115612e2157600080fd5b6020830191508360208260051b8501011115612e3c57600080fd5b9250929050565b600080600060408486031215612e5857600080fd5b612e6184612c92565b925060208401356001600160401b03811115612e7c57600080fd5b612e8886828701612df8565b9497909650939450505050565b60008060208385031215612ea857600080fd5b82356001600160401b0380821115612ebf57600080fd5b818501915085601f830112612ed357600080fd5b813581811115612ee257600080fd5b866020828501011115612ef457600080fd5b60209290920196919550909350505050565b60408101818360005b6002811015612f375781516001600160a01b0316835260209283019290910190600101612f0f565b50505092915050565b801515811461108257600080fd5b60008060408385031215612f6157600080fd5b612f6a83612c92565b91506020830135612f7a81612f40565b809150509250929050565b60008060208385031215612f9857600080fd5b82356001600160401b03811115612fae57600080fd5b612fba85828601612df8565b90969095509350505050565b634e487b7160e01b600052604160045260246000fd5b604080519081016001600160401b0381118282101715612ffe57612ffe612fc6565b60405290565b604051606081016001600160401b0381118282101715612ffe57612ffe612fc6565b604051601f8201601f191681016001600160401b038111828210171561304e5761304e612fc6565b604052919050565b60006001600160401b0382111561306f5761306f612fc6565b50601f01601f191660200190565b600061309061308b84613056565b613026565b90508281528383830111156130a457600080fd5b828260208301376000602084830101529392505050565b600080600080608085870312156130d157600080fd5b6130da85612c92565b93506130e860208601612c92565b92506040850135915060608501356001600160401b0381111561310a57600080fd5b8501601f8101871361311b57600080fd5b61312a8782356020840161307d565b91505092959194509250565b600082601f83011261314757600080fd5b6113ce8383356020850161307d565b6000806040838503121561316957600080fd5b8235915060208301356001600160401b0381111561318657600080fd5b61319285828601613136565b9150509250929050565b600080604083850312156131af57600080fd5b6131b883612c92565b915061081260208401612c92565b600181811c908216806131da57607f821691505b60208210811415610e0e57634e487b7160e01b600052602260045260246000fd5b6020808252602e908201527f4552433732313a2063616c6c6572206973206e6f7420746f6b656e206f776e6560408201526d1c881b9bdc88185c1c1c9bdd995960921b606082015260800190565b634e487b7160e01b600052601160045260246000fd5b60008161326e5761326e613249565b506000190190565b634e487b7160e01b600052603260045260246000fd5b60008235603e198336030181126132a257600080fd5b9190910192915050565b60006001600160401b038211156132c5576132c5612fc6565b5060051b60200190565b6000604082360312156132e157600080fd5b6132e9612fdc565b823581526020808401356001600160401b038082111561330857600080fd5b9085019036601f83011261331b57600080fd5b813561332961308b826132ac565b81815260059190911b8301840190848101903683111561334857600080fd5b8585015b83811015613380578035858111156133645760008081fd5b6133723689838a0101613136565b84525091860191860161334c565b5094860194909452509295945050505050565b60006000198214156133a7576133a7613249565b5060010190565b600081516133c0818560208601612cc9565b9290920192915050565b600080845481600182811c9150808316806133e657607f831692505b602080841082141561340657634e487b7160e01b86526022600452602486fd5b81801561341a576001811461342b57613458565b60ff19861689528489019650613458565b60008b81526020902060005b868110156134505781548b820152908501908301613437565b505084890196505b50505050505061346881856133ae565b95945050505050565b634e487b7160e01b600052601260045260246000fd5b60008261349657613496613471565b500490565b6000828210156134ad576134ad613249565b500390565b6000826134c1576134c1613471565b500690565b600082198211156134d9576134d9613249565b500190565b60008160001904831182151516156134f8576134f8613249565b500290565b60006020828403121561350f57600080fd5b81516113ce81612f40565b6001600160a01b039290921682526001600160e01b031916602082015260400190565b600081518084526020808501808196508360051b8101915082860160005b858110156135c657828403895281516060815181875261357d82880182612cf5565b91505086820151868203888801526135958282612cf5565b915050604080830151925086820381880152506135b28183612cf5565b9a87019a955050509084019060010161355b565b5091979650505050505050565b828152604060208201526000611030604083018461353d565b60208082526032908201527f4552433732313a207472616e7366657220746f206e6f6e20455243373231526560408201527131b2b4bb32b91034b6b83632b6b2b73a32b960711b606082015260800190565b7f416363657373436f6e74726f6c3a206163636f756e7420000000000000000000815260008351613676816017850160208801612cc9565b7001034b99036b4b9b9b4b733903937b6329607d1b60179184019182015283516136a7816028840160208801612cc9565b01602801949350505050565b600082601f8301126136c457600080fd5b81516136d261308b82613056565b8181528460208386010111156136e757600080fd5b611030826020830160208701612cc9565b6000602080838503121561370b57600080fd5b82516001600160401b038082111561372257600080fd5b818501915085601f83011261373657600080fd5b815161374461308b826132ac565b81815260059190911b8301840190848101908883111561376357600080fd5b8585015b8381101561381d5780518581111561377f5760008081fd5b86016060818c03601f19018113156137975760008081fd5b61379f613004565b89830151888111156137b15760008081fd5b6137bf8e8c838701016136b3565b825250604080840151898111156137d65760008081fd5b6137e48f8d838801016136b3565b838d0152509183015191888311156137fc5760008081fd5b61380a8e8c858701016136b3565b9082015285525050918601918601613767565b5098975050505050505050565b60408152600061383d604083018561353d565b8281036020840152613468818561353d565b602360f81b81526000825161386b816001850160208701612cc9565b9190910160010192915050565b602081526000825160c0602084015261389460e0840182612cf5565b90506020840151601f19808584030160408601526138b28383612cf5565b925060408601519150808584030160608601526138cf8383612cf5565b92506060860151915080858403016080860152506138ed828261353d565b6080959095015180516001600160a01b031660a08601526020015161ffff1660c090940193909352509192915050565b60006020828403121561392f57600080fd5b81516001600160401b0381111561394557600080fd5b611030848285016136b3565b6001600160a01b038581168252841660208201526040810183905260806060820181905260009061398490830184612cf5565b9695505050505050565b6000602082840312156139a057600080fd5b81516113ce81612c5f565b8281526040602082015260006110306040830184612cf5565b634e487b7160e01b600052605160045260246000fdfea26469706673582212204f852806fa436c4361bdb8d3e594a755e5d096e125bc38188c16476551f26e2864736f6c63430008090033",
  "linkReferences": {
    "contracts/common/libraries/DynamicMetadata.sol": {
      "DynamicMetadata": [
        {
          "length": 20,
          "start": 8982
        },
        {
          "length": 20,
          "start": 11326
        },
        {
          "length": 20,
          "start": 11755
        }
      ]
    }
  },
  "deployedLinkReferences": {
    "contracts/common/libraries/DynamicMetadata.sol": {
      "DynamicMetadata": [
        {
          "length": 20,
          "start": 6342
        },
        {
          "length": 20,
          "start": 8686
        },
        {
          "length": 20,
          "start": 9115
        }
      ]
    }
  }
}